{
  "transactions": [
    {
      "hash": "0x57debb07e5f9b64ea69d996db2e9fa28f0f6574a1172af2f482e9afc29e03eef",
      "transactionType": "CALL",
      "contractName": null,
      "contractAddress": "0x46c17579aff1635b9d983603ed0b4a1c0823bf3d",
      "function": "registerNGO(address)",
      "arguments": [
        "0xc7b93b317634c08D14D806057F9B4C0EB9E62059"
      ],
      "transaction": {
        "from": "0xc7b93b317634c08d14d806057f9b4c0eb9e62059",
        "to": "0x46c17579aff1635b9d983603ed0b4a1c0823bf3d",
        "gas": "0x10fe7",
        "value": "0x0",
        "input": "0xba581e53000000000000000000000000c7b93b317634c08d14d806057f9b4c0eb9e62059",
        "nonce": "0x6",
        "chainId": "0x14a34"
      },
      "additionalContracts": [],
      "isFixedGasLimit": false
    }
  ],
  "receipts": [
    {
      "status": "0x1",
      "cumulativeGasUsed": "0xdc0f2",
      "logs": [
        {
          "address": "0x46c17579aff1635b9d983603ed0b4a1c0823bf3d",
          "topics": [
            "0xb9deda3a98480edf69696f96244a4c593ae26eeb82c387e5c92f299468276038",
            "0x000000000000000000000000c7b93b317634c08d14d806057f9b4c0eb9e62059"
          ],
          "data": "0x",
          "blockHash": "0x4085ed54d43230c77130a9622577ca3596c058ec420d11f2b44799f0a3db6143",
          "blockNumber": "0x22f2ab2",
          "blockTimestamp": "0x6971b444",
          "transactionHash": "0x57debb07e5f9b64ea69d996db2e9fa28f0f6574a1172af2f482e9afc29e03eef",
          "transactionIndex": "0x8",
          "logIndex": "0x20",
          "removed": false
        }
      ],
      "logsBloom": "0x00000000000000000000000000000000000000000000000800000000000000000000000000000000000000000000000000000000000000000000000000000000000000000000000000000080000000000000000000000800000000000010000000000000000000000000000000004000000000000000000000000000000000000000000000000800000000000000000000000000000000000000000000000000000000000000000000000000000000000000000000000000000000000000000000000000000000000000000000000000000100000000000004000000000000000000000000000000000000000000002000000000000000000000000000000000",
      "type": "0x2",
      "transactionHash": "0x57debb07e5f9b64ea69d996db2e9fa28f0f6574a1172af2f482e9afc29e03eef",
      "transactionIndex": "0x8",
      "blockHash": "0x4085ed54d43230c77130a9622577ca3596c058ec420d11f2b44799f0a3db6143",
      "blockNumber": "0x22f2ab2",
      "gasUsed": "0xb9eb",
      "effectiveGasPrice": "0x124f80",
      "blobGasUsed": "0x79e0",
      "from": "0xc7b93b317634c08d14d806057f9b4c0eb9e62059",
      "to": "0x46c17579aff1635b9d983603ed0b4a1c0823bf3d",
      "contractAddress": null,
      "daFootprintGasScalar": "0x138",
      "l1BaseFeeScalar": "0x44d",
      "l1BlobBaseFee": "0x3e4b6df",
      "l1BlobBaseFeeScalar": "0xa118b",
      "l1Fee": "0x16a66ee71",
      "l1GasPrice": "0x3be2be15",
      "l1GasUsed": "0x640"
    }
  ],
  "libraries": [],
  "pending": [],
  "returns": {},
  "timestamp": 1769059395502,
  "chain": 84532,
  "commit": "2688400"
}